:03000000020B925E
:0C0B9200787FE4F6D8FD758158020BD97D
:100CD0001029484F5552532D3E203031202D2031C0
:100CE000320010194D494E54532D3E203031202DE5
:100CF000203630000F08204449474954414C2041D8
:0D0D00004C41524D0002170000023D000062
:100D49007F307E00120E1B7FB87E0B120D627F3042
:090D59007E00120E1B7FB87E0B18
:100D6200E4FDFCD3ED9FEC9E5015E4FBFA0BBB00B7
:0F0D7200010AEB64034A70F50DBD00010C80E42B
:010D8100224F
:0F0E0C00E4F517F518FE7F01120E1B7F807E00A4
:100E1B008F90C2B7C2B5D2B67F2C7E01120D62C2C3
:020E2B00B622ED
:100E41008F90C2B7D2B5D2B67F2C7E01120D62C28D
:020E5100B622C7
:100E2D00D2A0D2A1D2A2C2A320A5057E007F02220C
:040E3D00E4FEFF22AE
:10080000120E2D8E558F56E5566402455560030233
:100810000918120E0D74292518F8E6FF600D120E46
:10082000410518E51870EE051780EAE4F517F5188C
:100830007FC8FE120E1BE5186402451760191209E5
:10084000C8E51825E0244BF8A60608A6070518E514
:100850001870E3051780DFAE4BAF4C7C007D0A12A9
:100860000C1EE54E2FF550E54D3EF54F120E0C7463
:10087000192518F8E6FF600D120E410518E51870ED
:10088000EE051780EAE4F517F5187FC8FE120E1B77
:10089000E5186402451760191209C8E51825E02417
:1008A00043F8A60608A6070518E51870E3051780A3
:1008B000DFAE43AF447C007D0A120C1EE5462FF5E7
:1008C00052E5453EF551E4F517F5187FE87E031231
:1008D0000D627E00120E12E4F517F5187408251843
:1008E000F8E6FF600D120E410518E51870EE0517C9
:1008F00080EA120C857F3A120E41AF3CAE3B120CDF
:10090000947FCB7E00120E1BAF3EAE3D120C947551
:100910005500755601020807C3E53D648094805078
:100920000EE53C153C7002153B753D00753E3BC322
:10093000E53B64809480500EE53A153A7002153913
:10094000753B00753C3BD3E53A9400E539648094EF
:10095000805074E53C9400E53B648094805068E5E9
:100960003E9400E53D64809480505CE4F53DF53EA6
:10097000F539F53AF53BF53C7F01FE120E1BE4F527
:1009800017F51874082518F8E6FF600D120E4105DA
:1009900018E51870EE051780EA120C857F20120EFC
:1009A000417F3A120E41AF3CAE3B120C947F2012B5
:1009B0000E417FCB7E00120E1BAF3EAE3D120C945B
:0709C0007F20120E41C280EE
:0109C700220D
:100D0E007F0F7E00EF1FAC0670011E4C60147589BC
:100D1E0001758C3C758AB0D28C308DFDC28CC28D23
:100D2E0080E2E53E153E7002153D7FCB7E00120E31
:0B0D3E001BAF3EAE3D120C94020800FB
:100DEA00120D49120D49120D577F38120D597F0104
:100DFA00120D597F0C120D59120E177FB87E0B0275
:020E0A000D6277
:1009C8007F61EF64737003020ABCC2A0D2A1D2A2F5
:1009D800D2A320A5117F31120E417F207E4E120D29
:1009E800627E007F012220A6117F32120E417F20F5
:1009F8007E4E120D627E007F022220A7117F3312E5
:100A08000E417F207E4E120D627E007F0322D2A00F
:100A1800C2A1D2A2D2A320A5117F34120E417F20F9
:100A28007E4E120D627E007F042220A6117F3512B1
:100A38000E417F207E4E120D627E007F052220A788
:100A4800117F36120E417F207E4E120D627E007F8E
:100A58000622D2A0D2A1C2A2D2A320A5117F37120A
:100A68000E417F207E4E120D627E007F072220A657
:100A7800117F38120E417F207E4E120D627E007F5C
:100A8800082220A7117F39120E417F207E4E120DB9
:100A9800627E007F0922D2A0D2A1D2A2C2A320A640
:100AA8000E7F30120E417F207E4E120D6280057F30
:070AB800610209CAE4FEFF20
:010ABF002214
:100AC0007F017E00120E1474292518F8E6FF600DD0
:100AD000120E410518E51870EE051780EAE4F517C7
:100AE000F5187FC8FE120E1BE51864024517601941
:100AF0001209C8E51825E02447F8A60608A6070548
:100B000018E51870E3051780DFAE47AF487C007D1D
:100B10000A120C1EE54A2FF53AE5493EF539120E48
:100B20000C74192518F8E6FF600D120E410518E542
:100B30001870EE051780EAE4F517F5187FC8FE1265
:100B40000E1BE5186402451760191209C8E518253F
:100B5000E0243FF8A60608A6070518E51870E30587
:100B60001780DFAE3FAF407C007D0A120C1EE542CD
:100B70002FF53CE5413EF53BE4F517F5187FE87E9F
:100B800003120D627F017E00120E1B7F807E000229
:020B90000E1B3A
:100D8200120E0C74082518F8E6FF600D120E4105CC
:100D920018E51870EE051780EA120C857F3A120EDC
:100DA20041AF3CAE3B120C947FCB7E00120E1BAFC8
:060DB2003EAE3D020C9470
:0F0C8500E4F517F5187FC4FE120E1BAF3AAE3917
:040C94008E578F5890
:100C98007C007D0A120C30EFFD3395E0FCED24302A
:100CA800FDE43CFCC3ED9430EC648094804007EF95
:100CB8002430FF120E41AE57AF587C007D0A120C4B
:080CC80030ED2430FF020E4163
:100DB800E4F553F554F580F59075A0F075B00F1271
:100DC8000DEAD280120AC0120D82120D0EE53A45C4
:100DD8003970F7E53C453B70F1E53E453D70EBC2A7
:010DE800808A
:010DE90022E7
:100B9E00020DB8E493A3F8E493A34003F68001F2A8
:100BAE0008DFF48029E493A3F85407240CC8C33358
:100BBE00C4540F4420C8834004F456800146F6DF27
:100BCE00E4800B0102040810204080900CD0E47EDB
:100BDE00019360BCA3FF543F30E509541FFEE4931C
:100BEE00A360010ECF54C025E060A840B8E493A3E3
:100BFE00FAE493A3F8E493A3C8C582C8CAC583CA0E
:100C0E00F0A3C8C582C8CAC583CADFE9DEE780BEC5
:010D0D0000E5
:100C1E00EF8DF0A4A8F0CF8CF0A428CE8DF0A42EEA
:020C2E00FE22A4
:100C3000BC000BBE0029EF8DF084FFADF022E4CCA8
:100C4000F875F008EF2FFFEE33FEEC33FCEE9DEC71
:100C5000984005FCEE9DFE0FD5F0E9E4CEFD22EDB7
:100C6000F8F5F0EE8420D21CFEADF075F008EF2F01
:100C7000FFED33FD4007985006D5F0F222C398FDF2
:050C80000FD5F0EA228F
:00000001FF
